:020000040800F2
:10000000B007002089010008C90F0008C10D0008D1
:10001000C50F000881020008C71F0008000000008B
:10002000000000000000000000000000D5140008DF
:10003000A5030008000000005D100008011B000877
:10004000A3010008A3010008A3010008D5120008BD
:10005000A3010008A3010008B5090008A3010008D6
:10006000D9090008A3010008A3010008A3010008A2
:10007000A3010008A3010008A3010008A3010008D0
:10008000A3010008A3010008A3010008A3010008C0
:10009000A3010008A3010008A3010008FD0900084E
:1000A000A3010008A3010008A3010008A3010008A0
:1000B000651B0008A3010008A3010008A3010008B4
:1000C000A3010008A3010008A3010008A301000880
:1000D000A3010008A51D0008A3010008A301000852
:1000E000A3010008A3010008A301000800F002F822
:1000F00000F03AF80AA090E8000C82448344AAF188
:100100000107DA4501D100F02FF8AFF2090EBAE885
:100110000F0013F0010F18BFFB1A43F0010318473B
:100120009C200000BC200000103A24BF78C878C191
:10013000FAD8520724BF30C830C144BF04680C60ED
:10014000704700000023002400250026103A28BF35
:1001500078C1FBD8520728BF30C148BF0B60704739
:100160001FB51FBD10B510BD00F033F81146FFF7E5
:10017000F7FF01F09BFF00F051F803B4FFF7F2FF27
:1001800003BC01F022FF00000948804709480047EE
:10019000FEE7FEE7FEE7FEE7FEE7FEE7FEE7FEE737
:1001A000FEE7FEE704480549054A064B7047000094
:1001B000051B0008ED000008B0010020B00700207A
:1001C000B0030020B00300207047704770477047AD
:1001D0007047754600F02CF8AE4605006946534658
:1001E00020F00700854618B020B5FFF7DBFFBDE81B
:1001F00020404FF000064FF000074FF000084FF08E
:10020000000B21F00701AC46ACE8C009ACE8C0091E
:10021000ACE8C009ACE8C0098D46704710B504468B
:10022000AFF300802046BDE81040FFF7A6BF0000F6
:10023000004870474C01002010B5012000F030FF4D
:10024000002000F02DFF10BD08B5014600200090F1
:10025000034800900098084400900098008808BD6A
:10026000006C004008B500220092044A0092009AF7
:1002700002440092009A116008BD0000006C00402A
:1002800000BFFEE770B506460C464448B6FBF0F0EA
:1002900085B24248B6FBF0F100FB11604FF461619A
:1002A000B0FBF1F020703D48B6FBF0F100FB1160AF
:1002B0004FF46161B0FBF1F201FB12003C21B0FB95
:1002C000F1F060703548B6FBF0F100FB11604FF4BF
:1002D0006161B0FBF1F201FB12003C21B0FBF1F2D5
:1002E00001FB1200A07040F2B270A0800120A0714A
:1002F000E07104202072002D4EDD281D072190FBA7
:10030000F1F201FB1200401C207214E0A08800F002
:1003100059FD50B1B5F5B77F03DBA5F5B77085B2D0
:1003200006E0A088401CA08008E0A5F26D1085B210
:10033000A088401CA080B5F5B67FE7DC00BF20E0B8
:10034000A08800F03FFD48B1A079022806D11D2DFC
:1003500003DBA5F11D0085B210E014E0A079401E7A
:100360000F49085CA84205DCA079401E085C281AE9
:1003700085B203E0A079401CA07104E0A079401C84
:10038000A0711C2DDCDA00BF2DB9A079401E0449F4
:10039000085CE07100E0E571002070BD8051010053
:1003A000B02100087047000070B5002500F06CFF18
:1003B00006463349FFF766FF3148007828B93048D0
:1003C000407810B92E48807800B101252D4800787A
:1003D00008282DD2DFE800F00406080A111A1C23B1
:1003E000002425E0132423E0122421E0244800788F
:1003F0000A2190FBF1F0C4B21AE0214800780A21EA
:1004000090FBF1F201FB1200C4B211E011240FE0E5
:100410001B4840780A2190FBF1F0C4B208E018486C
:1004200040780A2190FBF1F201FB1200C4B200BF38
:1004300000BF002213480178204600F041FD11481A
:100440000078401C0F49087008460078082801D140
:10045000002008700C480088401C0B4908800846A2
:10046000008840F6C411884209D108480078032862
:1004700005D100200449088001200449087070BD9E
:100480006E0000201E000020200000201800002028
:1004900010B548480078082855D2DFE800F0040C71
:1004A0001925343B444B444880884FF47A7190FBC3
:1004B000F1F0C4B247E0404880884FF47A7190FB75
:1004C000F1F201FB1200642190FBF1F0C4B23AE0BA
:1004D00039488088642190FBF1F201FB12000A2167
:1004E00090FBF1F0C4B22EE0334880884FF47A716B
:1004F00090FBF1F201FB12000A2190FBF1F201FBEB
:100500001200C4B21FE02C4880790A2190FBF1F060
:10051000C4B218E0284880790A2190FBF1F201FB6F
:100520001200C4B20FE02448C0790A2190FBF1F018
:10053000C4B208E02048C0790A2190FBF1F201FB27
:100540001200C4B200BF00BF1A480078032803D0CD
:1005500018480078052806D101221648017820465F
:1005600000F0AEFC05E0002212480178204600F0C1
:10057000A7FC10480078401C0E4908700846007817
:10058000082801D1002008700C480088401C0B4945
:1005900008800846008840F6C411884209D10848FE
:1005A0000078022805D10020044908800120044970
:1005B000087010BD1B000020640000201C000020FB
:1005C0001800002010B573480088401C714908804D
:1005D00071480078082817D2DFE800F004172F468A
:1005E000607286986D480078042806D169480088B2
:1005F000B0F5967F01DD122406E0694880884FF44B
:100600007A7190FBF1F0C4B294E064480078042859
:1006100006D160480088B0F5967F01DD12240BE01A
:100620005F4880884FF47A7190FBF1F201FB120071
:10063000642190FBF1F0C4B27CE0584800780428B3
:1006400006D154480088B0F5967F01DD12240AE0F7
:1006500053488088642190FBF1F201FB12000A21CB
:1006600090FBF1F0C4B265E04C480078042806D154
:1006700048480088B0F5967F01DD12240DE0484817
:1006800080884FF47A7190FBF1F201FB12000A218D
:1006900090FBF1F201FB1200C4B24BE03F4800783E
:1006A000052806D13B480088B0F5967F01DD12246D
:1006B00005E03B4880790A2190FBF1F0C4B239E0B3
:1006C00036480078052806D132480088B0F5967F74
:1006D00001DD122407E0324880790A2190FBF1F213
:1006E00001FB1200C4B225E02C480078062806D190
:1006F00028480088B0F5967F01DD122405E02848DF
:10070000C0790A2190FBF1F0C4B213E023480078CD
:10071000062806D11F480088B0F5967F01DD122417
:1007200007E01F48C0790A2190FBF1F201FB12009B
:10073000C4B200BF00BF18480078032803D0164891
:100740000078052806D1012213480178204600F0E0
:10075000B7FB05E0002210480178204600F0B0FB0E
:100760000D480078401C0C4908700846007808289D
:1007700001D10020087007480088B0F5167F02D12B
:1007800000200449088007480088401C054908806B
:1007900010BD0000240000202200002019000020CD
:1007A000780000202600002010B552480088401C28
:1007B000504908805048007808287AD2DFE800F0D5
:1007C00004162A2D3F2B53654C480078012806D18A
:1007D00048480088B0F5967F01DD122405E04848BE
:1007E00000780A2190FBF1F0C4B262E0434800783F
:1007F000012806D13F480088B0F5967F01DD12241C
:1008000007E03F4800780A2190FBF1F201FB12005B
:10081000C4B24EE000BF11244BE0384800780228F3
:1008200006D134480088B0F5967F01DD122405E03A
:10083000334840780A2190FBF1F0C4B239E02F48E8
:100840000078022806D12B480088B0F5967F01DD9C
:10085000122407E02A4840780A2190FBF1F201FBBC
:100860001200C4B225E025480078032806D12148AB
:100870000088B0F5967F01DD122405E020488078DD
:100880000A2190FBF1F0C4B213E01C480078032861
:1008900006D118480088B0F5967F01DD122407E0E4
:1008A000174880780A2190FBF1F201FB1200C4B2D4
:1008B00000BF00BF002210480178204600F000FB76
:1008C0000D480078401C0C4908700846007808283C
:1008D00001D10020087007480088B0F5167F02D1CA
:1008E00000200449088007480088401C054908800A
:1008F00010BD00002A000020280000201900002060
:10090000780000202C00002010B528480078082826
:1009100038D2DFE800F0040B14171E15272E2448E8
:1009200000780A2190FBF1F0C4B22BE02048007857
:100930000A2190FBF1F201FB1200C4B222E000BFD9
:1009400011241FE01A4840780A2190FBF1F0C4B24C
:1009500018E0174840780A2190FBF1F201FB1200E1
:10096000C4B20FE0124880780A2190FBF1F0C4B2C3
:1009700008E00F4880780A2190FBF1F201FB120099
:10098000C4B200BF00BF002208480178204600F032
:1009900097FA06480078401C044908700846007819
:1009A000082801D10020087010BD00001A000020A6
:1009B0006400002010B50A2001F02CFB012000F09B
:1009C000B5F810B1012003490870012000F0A8F823
:1009D00010BD00001700002010B50A2001F01AFB1E
:1009E000042000F0A3F810B101200349087004208E
:1009F00000F096F810BD00001600002010B50A2087
:100A000001F008FB4FF4807000F090F810B1012065
:100A1000074908704FF4007000F088F810B1012009
:100A2000044908704FF4407000F07AF810BD0000DF
:100A300014000020150000200EB500F0DFF90121A0
:100A4000084600F01DFB0821022000F0C5F84FF415
:100A50008070019000208DF808000C208DF80900AE
:100A600001208DF80A0001A800F06CF8092102208D
:100A700000F0B2F84FF40070019001A800F062F8A5
:100A80000221032000F0A8F80420019000208DF836
:100A900008000C208DF8090001208DF80A0001A83B
:100AA00000F050F80221032000F096F80120019098
:100AB00000208DF8080008208DF8090001208DF82D
:100AC0000A0001A800F03EF806208DF80000022080
:100AD0008DF8010000208DF8020001208DF8030040
:100AE000684600F073FA08208DF8000002208DF8A7
:100AF000010001208DF802008DF80300684600F027
:100B000065FA17208DF8000002208DF801008DF89D
:100B1000020001208DF80300684600F057FA0EBD70
:100B2000014908607047000014040140014600209C
:100B3000034A12680A400AB1012000E00020704711
:100B400014040140002123498279002A3AD00A4640
:100B5000126803689A430B461A600A1D12680368FC
:100B60009A430B1D1A60027911440A6803681A43FC
:100B70000A60184A0832126803689A43154B083312
:100B80001A601A1D126803689A43124B0C331A60DC
:100B90004279102A0ED11A1F126803681A430D4BAE
:100BA00008331A601A1D126803681A43094B0C3384
:100BB0001A600DE00749427911440A6803681A4334
:100BC0000A6005E0027911440A6803689A430A60E2
:100BD000704700000004014030B500228B071C0F55
:100BE0000F2303FA04F20B4B8C1053F82430934379
:100BF000084C8D1044F8253023468C1053F82430CF
:100C00008C07240F00FA04F42343024C8D1044F89F
:100C1000253030BD080001402DE9F0410246002595
:100C20000026002000230024002791F803C00CF0C8
:100C30000F0591F803C00CF0100CBCF1000F03D0AD
:100C400091F802C04CEA050591F800C0BCF1000F14
:100C500031D0146800202BE04FF0010C0CFA00F3A7
:100C6000B1F800C00CEA03069E4220D183004FF089
:100C70000F0C0CFA03F7BC4305FA03FC4CEA04041E
:100C800091F803C0BCF1280F06D14FF0010C0CFA0B
:100C900000FCC2F814C00AE091F803C0BCF1480F90
:100CA00005D14FF0010C0CFA00FCC2F810C0401C3A
:100CB0000828D1D31460B1F800C0BCF1FF0F34DDB7
:100CC000546800202EE000F1080C4FF0010808FAEB
:100CD0000CF3B1F800C00CEA03069E4221D1830058
:100CE0004FF00F0C0CFA03F7BC4305FA03FC4CEA77
:100CF000040491F803C0BCF1280F05D100F1080CE1
:100D000008FA0CF8C2F8148091F803C0BCF1480F3F
:100D100007D100F1080C4FF0010808FA0CF8C2F8EE
:100D20001080401C0828CED35460BDE8F08100003C
:100D3000F0B50A46002300240021002500F00046FB
:100D4000B6F1004F02D11D4EF16901E01B4E7168F2
:100D5000C0F3034583B200F44016B6F5401F08D136
:100D600021F07061154E766826F07066134F7E6034
:100D700012E000F48016B6F5801F06D1032606FAAD
:100D800005F4A14341F0706106E0460D360103FA17
:100D900006F6B14341F0706122B1460D360103FA07
:100DA00006F6314300F00046B6F1004F02D1034E83
:100DB000F16101E0014E7160F0BD000000000140F2
:100DC00000BFFEE710B501464FF4C87391FBF3F482
:100DD00003FB14136BB10846CB1701EB93739B1005
:100DE000A1EB83033BB9642391FBF3F403FB1413DE
:100DF0000BB1012200E00022104610BD08B5012110
:100E0000342000F03DF90120ADF8000028208DF8D5
:100E1000030069460C48FFF7FFFE4FF44070ADF841
:100E2000000048208DF8030069460848FFF7F4FEEB
:100E30000420ADF8000048208DF8030069460448FE
:100E4000FFF7EAFE08BD0000000801400010014065
:100E50000014014008B50121102000F011F90F2005
:100E6000ADF8000010208DF8030003208DF802007B
:100E700069460848FFF7D0FE012007490860074986
:100E8000C1F884010449083108600449C1F88C01A3
:100E900008BD0000001001408001224200002242F3
:100EA00010B5012004490860052001F0D9F80020A0
:100EB0000249C1F8900110BD908121420080214279
:100EC00070B504460E4615460449095D2944C8B26A
:100ED000314600F055F8FFF7E3FF70BD0000002039
:100EE00008B50121192000F0CBF801211548FFF7C2
:100EF0001FFF3820ADF8000010208DF803000320FC
:100F00008DF8020069461048FFF786FE4FF4E05066
:100F1000ADF8000069460D48FFF77EFE00200C4941
:100F2000086001200B49C1F89001002008490831F0
:100F3000086007490860091D08600649C1F8940166
:100F400008BD000000023000000C0140001001400C
:100F50008C8121420080214200F00101064A11608B
:100F6000C0F34001054AC2F8AC11C0F38001024A47
:100F70000832116070470000A8012242000022429E
:100F800070B506460D46002412E046FA04F000F063
:100F900001000A49086000200949C1F894010520B0
:100FA00001F05EF80120054908310860601CC4B2F8
:100FB000082CEADB2846FFF7CFFF70BD8C81214269
:100FC0000080214200BFFEE77047000070B500219D
:100FD00000230F22C47804B3154C246804F4E064A1
:100FE000C4F5E064210AC1F10403CA40447804FA5C
:100FF00003F184781440214309010E4C0678A15571
:10100000047804F01F050124AC4005786D11AD0093
:1010100005F1E025C5F8004109E0047804F01F055A
:101020000124AC40044D0678761145F8264070BD89
:101030000CED00E000E400E080E100E00249014343
:10104000024A1160704700000000FA050CED00E054
:10105000014908627047000000000E42704700001E
:1010600029B1064AD2690243044BDA6104E0034A1B
:10107000D2698243014BDA617047000000100240E0
:1010800029B1064A92690243044B9A6104E0034A7B
:1010900092698243014B9A61704700000010024040
:1010A00001490860704700004004424230B5002109
:1010B0000022002400232D4D6D6805F00C0121B1A4
:1010C000042905D0082923D105E0294D056022E037
:1010D000274D05601FE0254D6D6805F47012234D06
:1010E0006D6805F48034022505EB92421CB9214D50
:1010F000554305600BE01D4D6D6805F400351DB1CD
:101100001C4D5543056002E0194D5543056002E052
:10111000174D056000BF00BF144D6D6805F0F0016C
:101120000909154D6B5C0568DD4045600F4D6D6824
:1011300005F4E061090A104D6B5C4568DD4085608F
:101140000A4D6D6805F46051C90A0B4D6B5C45682A
:10115000DD40C560054D6D6805F44041890B074DC4
:101160006B5CC568B5FBF3F5056130BD001002404E
:1011700000127A0000093D003A0000204A000020D9
:1011800010B501460022002300204A11012A02D195
:10119000094C236806E0022A02D1074C236A01E0C9
:1011A000054C636A01F01F02012494401C400CB1FD
:1011B000012000E0002010BD0010024000210B4A79
:1011C00011700A4A203A82F82010012802D004281F
:1011D00008D103E00121054A117004E00521034A0A
:1011E000117000E000BF00BF7047000020100240F7
:1011F00001490860704700003C0442420249096A04
:101200000143014A116270470010024070B5044664
:101210000E4601214FF0C050FFF722FF0120FFF7DB
:1012200017FF204600F0F2FC054600F00BF900F035
:1012300035F9002070BD0000024909888143014A48
:1012400011807047042800400348008840F01000D7
:1012500001490880704700000428004003480088C6
:101260004FF6EF710840014908807047042800409C
:1012700010B500F013F804460249FFF703F8002008
:1012800010BD000064000020002103480188001FF9
:10129000008841EA004070472428004000210348AC
:1012A0000188001F008841EA004070471C28004068
:1012B00001460020064A12880A40D0B2044A121F92
:1012C00012880A4012B108B1012000E000207047E6
:1012D0000428004010B50120FFF7EAFF08B1FFF72E
:1012E000C7FF0220FFF7E4FF38B10020064908607D
:1012F0000220FFF7A1FFFFF7BBFF0520FFF79CFFD0
:1013000000F0CCF810BD00008001224229B1064A4D
:1013100012880243044B1A8004E0034A1288824375
:10132000014B1A8070470000002800403EB50024A1
:1013300040F2E370ADF8040001208DF806001B2098
:101340008DF807000E208DF8000028208DF8010090
:1013500000208DF8020001214FF0C050FFF780FE01
:101360000120FFF775FE0420FEF76EFF4AF2A5513B
:10137000884238D0FEF760FF0120FFF71FFF04E02E
:10138000601CC4B20A2000F045FE4120FFF7F8FEC1
:1013900008B9FA2CF4DBFA2C01DB01203EBD4FF436
:1013A0008070FFF72BFF0120FFF722FF00F080F88D
:1013B00000F074F801210846FFF7A8FF00F06EF86E
:1013C000FFF742FF47F6FF7000F058F800F066F8AC
:1013D000684600F026F8FFF741FF4AF2A5510420C5
:1013E000FEF740FF07E000F063F801210320FFF75C
:1013F0008DFF00F053F800F004F8FFF739FF0020EC
:10140000CCE708B503208DF8000000208DF801001E
:101410008DF8020001208DF803006846FFF7D6FD25
:1014200008BD70B5044601214FF0C050FFF718FE0B
:101430000120FFF70DFE204600F0E8FB054600F016
:101440000FF870BD00B50246FFF7FEFE100C034911
:101450000880091D0A80FFF701FF00BD2028004019
:1014600000B50246FFF7F0FE100C03490880091D85
:101470000A80FFF7F3FE00BD1828004000B50246C1
:10148000FFF7E2FEC2F3034003490880091D0A800A
:10149000FFF7E4FE00BD00000828004000BF03483D
:1014A000008800F020000028F9D070470428004090
:1014B000074800884FF6F77108400549088000BFCB
:1014C0000348008800F008000028F9D070470000A9
:1014D00004280040704710B500F002F810BD00006D
:1014E0000CB50020019000903348006840F4803033
:1014F0003149086000BF3048006800F400300090B7
:101500000198401C0190009818B90198B0F5A06F9F
:10151000F1D12948006800F4003010B1012000909A
:1015200001E0002000900098012843D12348006882
:1015300040F01000214908600846006820F00300D0
:1015400008600846006840F0020008601A484068D9
:10155000194948600846406848600846406840F4B9
:10156000806048600846406820F47C104860084667
:10157000406840F4E81048600846006840F0807019
:10158000086000BF0C48006800F000700028F9D027
:101590000948406820F00300074948600846406851
:1015A00040F00200486000BF0348406800F00C00B3
:1015B0000828F9D10CBD00000010024000200240B4
:1015C00010B5F748007801287ED1F6480078002849
:1015D0007AD00020F3490870F3488088F349888066
:1015E000F14880798871F048C079C871EE48007878
:1015F0000870ED4840784870EB4880788870042087
:10160000E74908700120EA49087012E2E5480078CD
:10161000C0B10020E3490870E5480078062805D1EC
:101620000120E3490870DE49087003E2E0480078D1
:10163000401CDF49087008460078032802DD0520B9
:10164000D7490870DB48007800287DD00020D949B0
:101650000870D7480078072815D2DFE800F0D3A932
:10166000B7C504152300D148808840F6160188428A
:1016700004D140F2B270CD49888004E0CB48808824
:10168000401CCA498880BDE0C84880790C2803D135
:101690000120C649887104E0C4488079401CC349D0
:1016A0008871AFE0C14A9279012A19D0BF4A927974
:1016B000032A15D0BD4A9279052A11D0BB4A9279E6
:1016C000072A0DD0B94A00E0B5E19279082A07D07F
:1016D000B64A92790A2A03D0B44A92790C2A03D1E5
:1016E000B24AD2791F2A59D0B04A9279042A0BD033
:1016F000AE4A9279062A07D0AC4A9279092A03D0D9
:10170000AA4A9279012A03D1A84AD2791E2A45D041
:10171000A64A92884FF4C87392FBF3F403FB142299
:1017200082B1A24A9188CA1701EB92729210A1EB82
:1017300082028AB99D4A9288642392FBF3F403FBE8
:1017400014224AB1994A00E05DE09279022A03D15D
:10175000964AD2791D2A21D0944A92884FF4C873B0
:1017600092FBF3F403FB1422E2B1904A9088C21773
:1017700000EB92729210A0EB82023AB98B4A9288E7
:10178000642392FBF3F403FB14225AB9874A92793B
:10179000022A07D1854AD2791C2A03D10120834924
:1017A000C87104E08148C079401C8049C87129E0B3
:1017B0007E480078172803D100207C49087004E097
:1017C0007A480078401C794908701BE077484078D7
:1017D0003B2803D100207549487004E073484078E5
:1017E000401C724948700DE0704880783B2803D156
:1017F00000206E49887004E06C488078401C6B497A
:10180000887000BF00BF6C48007800287DD00020A1
:101810006949087066480078072815D2DFE800F0AB
:10182000E8B3CEDB041523006048808840F2B27133
:10183000884204D140F616005C49888004E05B4889
:101840008088401E59498880D2E058488079012814
:1018500003D10C205549887104E054488079401E1A
:1018600052498871C4E051488079012817D04F4807
:101870008079032813D04D48807905280FD04B4834
:10188000807907280BD049488079082807D0474835
:1018900080790A2803D0454880790C2807D143482D
:1018A000C079012803D11F204049C8716AE03F4830
:1018B000807904280BD03D488079062807D03B4822
:1018C0008079092803D039488079012807D1374821
:1018D000C079012803D11E203449C87152E0334930
:1018E00089884FF4C87291FBF2F302FB131191B196
:1018F0002E498888C11700EB91718910A0EB8101F6
:10190000A9B92A498988642200E072E091FBF2F3C8
:1019100002FB131159B125498979022907D12349BD
:10192000C979012903D11D202049C8712AE01F4926
:1019300089884FF4C87291FBF2F302FB1311E1B1F5
:101940001A498888C11700EB91718910A0EB8101B9
:1019500039B916498988642291FBF2F302FB13110D
:1019600059B912498979022907D11049C979012940
:1019700003D11C200D49C87104E00C48C079401EF9
:101980000A49C87134E00948007818B91720074996
:10199000087004E005480078401E0449087027E0FC
:1019A00018000020170000206400002078000020AC
:1019B0001900002014000020150000201E48407867
:1019C00018B93B201C49487004E01B484078401E71
:1019D000194948700CE01848807818B93B2016491E
:1019E000887004E014488078401E1349887000BF56
:1019F00000BF12480078E0B10020104908700E487E
:101A0000FFF70FFD0C4880880D4988800A488079CF
:101A100088710948C079C87107480078087006487D
:101A20004078487004488078887001200549087023
:101A300000E0EBE500BF10BD78000020160000209C
:101A400064000020180000201E480078012838D1CA
:101A50001D48007830B91D48007818B91C48007836
:101A600000282ED02BE01848007870B100201649CD
:101A7000087014480078401C124908700846007825
:101A8000042802D1012008701AE01148007830B112
:101A900000200F49087001200A49087010E00D4825
:101AA000007810B90948007820B100200949087071
:101AB0000649087003480078012800D100E0D2E709
:101AC00000BF7047180000201400002015000020FF
:101AD0001600002017000020042808D14FF0E02154
:101AE000096941F004014FF0E022116107E04FF075
:101AF000E021096921F004014FF0E02211617047F3
:101B00007047000010B51348006840F0010011490B
:101B1000086008464068104908400E494860084679
:101B200000680E4908400B4908600846006820F428
:101B3000802008600846406820F4FE0048604FF4AA
:101B40001F008860FFF7C7FC4FF000600449086081
:101B500010BD0000001002400000FFF8FFFFF6FE7D
:101B600008ED00E010B50121880700F0AEF8E0B103
:101B70000121880700F09AF80C480078062813D253
:101B8000DFE800F0120306090C0FFEF7BDFE0BE0C4
:101B9000FEF77EFC08E0FEF707FC05E0FEF704FE1A
:101BA00002E0FEF70FFD00BF00BF10BD18000020CF
:101BB0007FB505460C4601210846FFF751FAADF8FE
:101BC0000850ADF804400020ADF80A00ADF806005A
:101BD00001A94FF0804000F093F8012211469007D0
:101BE00000F084F81C208DF8000000208DF8010022
:101BF00003208DF8020001208DF803006846FFF7EE
:101C0000E5F90121880700F054F87FBD70B504465E
:101C10000026A08840F2B271884204DBA08840F61A
:101C20001601884201DD012070BD40F2B2750CE062
:101C30002846FFF7C7F818B106F5B77086B202E07C
:101C400006F26D1086B2681C85B2A088A842EFDC4F
:101C5000012506E0681E1349085C304486B2681C02
:101C600085B2A079A842F5DCA088FFF7ABF820B1D7
:101C7000A079022801DD701C86B2E079304486B27A
:101C8000094870432178C1EB4112C2EB012100EBFE
:101C900001106178C1EB011100EB8100A1780844CB
:101CA000C2E70000B021000880510100CA4302824F
:101CB000704721B1028842F00102028004E00288EC
:101CC0004FF6FE731A400280704730B5024600207E
:101CD00000230024158A05EA0103958905EA010419
:101CE00013B10CB1012000E0002030BD1AB183898E
:101CF0000B43838102E083898B438381704700001B
:101D0000002202881D4B98420ED01D4B98420BD0EA
:101D1000B0F1804F08D01B4B984205D01A4B984227
:101D200002D01A4B984204D14FF68F731A404B8859
:101D30001A43174B984207D0164B984204D04FF6DF
:101D4000FF431A40CB881A4302808B8883850B8817
:101D500003850A4B98420BD0094B984208D00E4B92
:101D6000984205D00D4B984202D00D4B984201D1BC
:101D70000B7A03860123838270470000002C014008
:101D8000003401400004004000080040000C004006
:101D90000010004000140040004001400044014099
:101DA0000048014010B540F225511D4800F04AF8A6
:101DB00010B31B4800F002F9C4B21A48008800F4BE
:101DC0000040C8B91748008800F4804060B10A2C70
:101DD00003D000201349088020E01248008840F416
:101DE00000401049088019E00D2C06D10D480088EC
:101DF00040F480400B49088010E00A480088C0F396
:101E00000D0009490C5407480088401C054908800A
:101E100008460088C72801DD0020088010BD0000AA
:101E200000380140380000208200002021B1828962
:101E300042F40052828104E082894DF6FF731A4019
:101E40008281704770B502460024002300250020DF
:101E500040F66A16B14200D100BFC1F3421501F04D
:101E60001F03012606FA03F3012D02D196893340A0
:101E700006E0022D02D1168A334001E0968A3340F3
:101E80000C12012606FA04F41688344013B10CB182
:101E9000012000E0002070BDF0B5034600240026BC
:101EA0000025002040F66A17B94200D100BF18464D
:101EB000C1F3421401F01F06012707FA06F5012CB1
:101EC00001D10C3004E0022C01D1103000E01430BC
:101ED0001AB107682F43076002E00768AF43076045
:101EE000F0BD00002DE9F04786B005460E460024FF
:101EF000A24600BFA1460027B08900B100BF2F460F
:101F00002C8A4CF6FF700440F08804432C82AC8984
:101F10004EF6F3100440B0883189084371890843B4
:101F20000443AC81AC8A4FF6FF400440B0890443BF
:101F3000AC8201A8FFF7BAF81F48874202D1DDF84A
:101F400010A001E0DDF80CA0A88900F4004040B129
:101F50000AEBCA0000EB0A1031684900B0FBF1F847
:101F600007E00AEBCA0000EB0A1031688900B0FBF9
:101F7000F1F86420B8FBF0F004012009642101FBB2
:101F80001089A88900F4004040B1322000EBC9005C
:101F9000B0FBF1F000F00700044308E0322000EB52
:101FA00009106421B0FBF1F000F00F0004432C8114
:101FB00006B0BDE8F087000000380140014688887F
:101FC000C0F30800704700BFFEE700BF7047000085
:101FD00010B56FF00400FFF77FFD0A4800680A495A
:101FE000B0FBF1F0094908700846007800EB4001A9
:101FF000C1EBC0104FF6FF7101EAC0000449088030
:1020000010BD00005000002000127A002E000020B9
:10201000300000200146114A12884A434FF0E02365
:102020005A6100229A611A46126942F001021A614D
:1020300000BF4FF0E022106900F001021AB100F475
:102040008032002AF5D04FF0E022126922F001021E
:102050004FF0E0231A6100229A617047300000209F
:102060000146114A12784A434FF0E0235A61002298
:102070009A611A46126942F001021A6100BF4FF0DC
:10208000E022106900F001021AB100F48032002A47
:10209000F5D04FF0E022126922F001024FF0E02368
:1020A0001A6100229A6170472E00002040F2E3700E
:1020B00016498880012088711920C8710B2008708A
:1020C00039204870002088704FF4A060FEF7B6FFFA
:1020D000FFF77EFFFEF7BEFEFEF702FF4FF4E13092
:1020E00000F016F8FEF7A8FCFFF720F901210748D9
:1020F000FFF78CF841F61F411320FFF759FD03E06D
:10210000FFF7A2FCFFF75CFAFAE700006E00002080
:1021100010B586B00446012144F20400FEF7B0FF7A
:102120004FF40070ADF8140003208DF8160018204D
:102130008DF8170005A91C48FEF76EFD4FF480606E
:10214000ADF8140004208DF8170005A91648FEF715
:1021500063FD25208DF8000003208DF801008DF827
:10216000020001208DF803006846FEF72FFF01945E
:102170000020ADF80800ADF80A00ADF80C00ADF88D
:1021800010000C20ADF80E0001A90848FFF7AAFEC8
:10219000012240F225510548FFF77EFE0121034848
:1021A000FFF744FE06B010BD0008014000380140B2
:1021B0001F1C1F1E1F1E1F1F1E1F1E1FDC210008AD
:1021C00000000020640000002801000840220008F0
:1021D000640000204C07000044010008FC60DAF2B3
:1021E00066B6BEE0FEF6EE3E9C7A9E8E010200ECE4
:1021F00000000000010000000000000000000000DE
:1022000000000000000000000000000000000000CE
:1022100000000000000000000000010203040102B1
:1022200003040607080902040608000000A24A0485
:102230000000000000000000010203040607080976
:04000005080000ED02
:00000001FF
